:100000000C9446000C945D000C945D000C945D0013
:100010000C945D000C945D000C945D000C945D00EC
:100020000C945D000C945D000C945D000C945D00DC
:100030000C945D000C945D000C945D000C945D00CC
:100040000C945D000C945D000C945D000C945D00BC
:100050000C945D000C945D000C945D000C945D00AC
:100060000C945D000C945D000C945D000C945D009C
:100070000C945D000C945D000C945D000C945D008C
:100080000C945D000C945D000C945D0011241FBE67
:10009000CFEFD0E1DEBFCDBF11E0A0E0B1E0EEE5F3
:1000A000F1E000E00BBF02C007900D92AC32B10747
:1000B000D9F70E9483000C94AD000C940000DF93EC
:1000C000CF9300D000D0CDB7DEB79C838B838B81DC
:1000D0009C819A8389830BC0A0E2B0E0E981FA8118
:1000E00080818C9389819A8101969A838983E981A1
:1000F000FA818081882381F70F900F900F900F90E5
:10010000CF91DF910895DF93CF930F92CDB7DEB7F4
:1001100080E091E00E945F00E2E2F0E0808189836C
:100120008DE191E00E945F00E0E2F0E08981808350
:10013000E2E2F0E08081898389818A30A9F7E0E2F8
:10014000F0E08AE08083E0E2F0E08AE0808380E013
:0E01500090E00F90CF91DF910895F894FFCFCB
:10015E000A507265737320616E79206B6579206128
:10016E006E6420656E7465723A0A203E000A596FFD
:0C017E007520656E74657265643A20009F
:00000001FF
