:100000000C9446000C945D000C945D000C945D0013
:100010000C945D000C945D000C945D000C945D00EC
:100020000C945D000C945D000C945D000C945D00DC
:100030000C945D000C945D000C945D000C945D00CC
:100040000C945D000C945D000C945D000C945D00BC
:100050000C945D000C945D000C945D000C945D00AC
:100060000C945D000C945D000C945D000C945D009C
:100070000C945D000C945D000C945D000C945D008C
:100080000C945D000C945D000C945D0011241FBE67
:10009000CFEFD0E1DEBFCDBF11E0A0E0B1E0E2E6FE
:1000A000F1E000E00BBF02C007900D92A030B10755
:1000B000D9F70E945F000C94AF000C940000DF930E
:1000C000CF9300D0CDB7DEB7EBE3F0E081E08083E3
:1000D0001A82198206C0000089819A8101969A834A
:1000E000898389819A8125E08C3D9207A4F3E8E316
:1000F000F0E081E080831A82198206C000008981C5
:100100009A8101969A83898389819A8125E08C3D21
:100110009207A4F3EBE3F0E010821A82198206C082
:10012000000089819A8101969A83898389819A81C5
:1001300025E08C3D9207A4F3E8E3F0E010821A82F8
:10014000198206C0000089819A8101969A83898369
:1001500089819A8125E08C3D9207A4F3B5CFF8946C
:02016000FFCFCF
:00000001FF
